:100000000C94920E0C94C30E0C94C30E0C94C30E5D
:100010000C94C30E0C94C30E0C94C30E0C94C30E1C
:100020000C94C30E0C94C30E0C94C30E0C94C30E0C
:100030000C94C30E0C94C30E0C94C30E0C94C30EFC
:100040000C94C30E0C94C5830C94C30E0C94C30E75
:100050000C94C30E0C94C30E0C94F67C0C94827B0F
:100060000C94C30E0C940F840C9405840C94C30E52
:100070000C94C30E0C94C30E0C94C30E0C94C30EBC
:100080000C94C30E0C94C30E0C94C30E0C94C30EAC
:100090000C94C30E0C94C30E0C94C30E0C94C30E9C
:1000A0000C94C30E0C94C30E0C94C30E0C94C30E8C
:1000B0000C94C30E0C94C30E0C94C30E0C94C30E7C
:1000C0000C94C30E0C94C30E0C94C30E0C94C30E6C
:1000D0000C94C30E0C94C30E0C94C30E0C94C30E5C
:1000E0000C94C30E084AD73B3BCE016E84BCBFFDC7
:1000F000C12F3D6C74319ABD56833DDA3D00C77FF8
:1001000011BED9E4BB4C3E916BAAAABE0000008090
:100110003F05A84CCDB2D44EB93836A9020C50B91F
:10012000918688083CA6AAAA2ABE000000803F004B
:100130000C94070F0C94390F0C949C100C94180F0E
:100140000C941E0F0C9447100C94030F0C94231066
:100150000C940E0F0C9492100C940A100C943D10F9
:100160000C940B0F0C94300F0C94340F0C947E10E5
:100170000C9418870C94140F0C94F90E0C943A0FED
:100180000C94220F0C942D100C94260F0C9402103A
:100190000C9488100C9419100C94FF0E0C9474108D
:1001A0000C940F100C945B100C943E0F0C94511097
:1001B0000C9435100C946A100C942C0F4E414E493F
:1001C0004E495459494E46CDCCCC3D0AD7233C1715
:1001D000B7D13877CC2B329595E6241FB14F0A0062
:1001E0000020410000C84200401C4620BCBE4CCA52
:1001F0001B0E5AAEC59D74434F4D4D554E4943415C
:1002000054494F4E0044525952554E004552524F98
:10021000525300494E464F004543484F00457272C5
:100220006F722077726974696E6720746F2045451C
:1002300050524F4D210A00363726023C3D380E2ED3
:10024000303E12131A1C1808440AFF430C08090018
:1002500001627573793A2070617573656420666F09
:100260007220696E7075740A00627573793A207035
:10027000617573656420666F7220757365720A001C
:10028000627573793A2070726F63657373696E6714
:100290000A004B494C4C2063617573656420627998
:1002A00020746F6F206D75636820696E6163746977
:1002B00076652074696D65202D2063757272656E98
:1002C0007420636F6D6D616E643A20006563686FC2
:1002D0003A004572726F723A000A0A426564204C15
:1002E0006576656C20436F7272656374696F6E200A
:1002F0004D61747269783A00202B000A436F727264
:100300006563746564204265642048656967687444
:100310002076732E2042656420546F706F6C6F6777
:10032000793A0A00202B000A426564204865696713
:10033000687420546F706F6772617068793A0A2030
:1003400020202B2D2D2D204241434B202D2D2B0ADB
:100350002020207C20202020202020202020207CE5
:100360000A204C207C20202020282B2920202020FF
:100370007C20520A2045207C202020202020202084
:100380002020207C20490A2046207C20282D29205E
:100390004E20282B29207C20470A2054207C202016
:1003A0002020202020202020207C20480A202020DF
:1003B0007C20202020282D29202020207C20540A49
:1003C0002020207C20202020202020202020207C75
:1003D0000A2020204F2D2D2046524F4E54202D2DE7
:1003E0002B0A2028302C30290A0020284452595248
:1003F000554E2900473239204175746F204265649B
:10040000204C6576656C696E67003F20284C2C5245
:100410002C462C4229206F7574206F6620626F7500
:100420006E64732E0A003F50726F626520706F69B0
:100430006E74732028592920697320696D706C616E
:10044000757369626C652028322D33292E0A003FAE
:1004500050726F626520706F696E7473202858291E
:1004600020697320696D706C61757369626C6520B9
:1004700028322D33292E0A003F2856296572626FD3
:100480007365206C6576656C20697320696D706C8E
:1004900061757369626C652028302D34292E0A003D
:1004A00020496E76616C6964206578747275646544
:1004B00072200020746F6F206C6F6E6720657874F7
:1004C000727573696F6E2070726576656E7465649F
:1004D0000A0020636F6C6420657874727573696FAD
:1004E0006E2070726576656E7465640A0047322FFF
:1004F00047332062616420706172616D657465725A
:10050000730A00205A3A200020593A2000426564BC
:1005100020583A20002569730025696D20256973EC
:10052000002569682025696D2025697300256964A7
:10053000202569682025696D202569730025697962
:1005400020256964202569682025696D2025697347
:10055000005072696E742074696D653A20002057EE
:100560003A006F666600180213020C020502F701DA
:1005700044454255473A004D31313320530020570E
:100580003A006F6B0050533A300A0050533A310A28
:10059000004348414D4245525F54454D50455241FC
:1005A00054555245004D4F54494F4E5F4D4F4445B1
:1005B0005300544845524D414C5F50524F544543AF
:1005C00054494F4E004155544F5245504F52545F7D
:1005D00053445F5354415455530050524F4D50545F
:1005E0005F535550504F525400454D455247454E6C
:1005F00043595F50415253455200434153455F4C6C
:10060000494748545F4252494748544E4553530066
:10061000544F47474C455F4C494748545300534F4C
:100620004654574152455F504F5745520042554935
:100630004C445F50455243454E54004C4556454C42
:10064000494E475F44415441005A5F50524F424522
:10065000004155544F4C4556454C005052494E545C
:100660005F4A4F420050524F475245535300415545
:10067000544F5245504F52545F54454D5000564FC1
:100680004C554D455452494300454550524F4D003D
:1006900042494E4152595F46494C455F5452414E82
:1006A000534645520053455249414C5F584F4E5FA7
:1006B000584F4646004649524D574152455F4E41BC
:1006C0004D453A4D61726C696E2062756766697856
:1006D0002D322E302E7820284769746875622920C3
:1006E000534F555243455F434F44455F55524C3A33
:1006F00068747470733A2F2F6769746875622E631B
:100700006F6D2F4D61726C696E4669726D776172A3
:10071000652F4D61726C696E2050524F544F434F9C
:100720004C5F56455253494F4E3A312E30204D4181
:100730004348494E455F545950453A33442050721E
:10074000696E7465722045585452554445525F4352
:100750004F554E543A3120555549443A63656465C6
:10076000326132662D343161322D343734382D39CF
:100770006231322D6335356336326633363766661D
:100780000A002F2F2000205400205200416363658F
:100790006C65726174696F6E3A205000205A0020B7
:1007A0005900580020204D61783A2000205A00203E
:1007B0005900580020204D696E3A2000536F66742E
:1007C00020656E6473746F70733A200020466C6FFE
:1007D000773A200050726F746563746564205069C5
:1007E0006E0A0020643A0020693A0020703A0049FD
:1007F0006E76616C69642065787472756465720ADE
:100800000064697300656E0043290A0061626C65CB
:100810006420286D696E2074656D702000436F6CD4
:100820006420657874727564657320617265200058
:1008300023646566696E652044454641554C545FA6
:10084000004B6420004B6920004B7020005049444D
:10085000204175746F74756E652066696E69736882
:100860006564212050757420746865206C61737410
:10087000204B702C204B6920616E64204B642063F8
:100880006F6E7374616E74732066726F6D20626533
:100890006C6F7720696E746F20436F6E6669677541
:1008A000726174696F6E2E680A0050494420417568
:1008B000746F74756E65206661696C65642120745F
:1008C000696D656F75740A00453120544845524D75
:1008D000414C2052554E4157415900546865726D44
:1008E000616C2052756E61776179004531204865F1
:1008F0006174696E67206661696C65640048656152
:1009000074696E67206661696C65640050494420B3
:100910004175746F74756E65206661696C656421DC
:100920002054656D706572617475726520746F6FA7
:1009300020686967680A00204B643A2000204B69F0
:100940003A2000204B703A20000A20436C617373F8
:10095000696320504944200A002054753A20002041
:100960004B753A2000206D61783A2000206D696E49
:100970003A200020643A200020626961733A200026
:10098000504944204175746F74756E6520737461AD
:1009900072740A00504944204175746F74756E6515
:1009A000206661696C6564212054656D70657261B3
:1009B0007475726520746F6F20686967680A0050EB
:1009C0004944204175746F74756E65206661696C69
:1009D0006564212042616420657874727564657273
:1009E000206E756D6265720A004F4646004F4E00DC
:1009F000426564204C6576656C696E6720004661CF
:100A0000696C656420746F20656E61626C6520425C
:100A10006564204C6576656C696E670A00426564A2
:100A2000204C6576656C20436F7272656374696FE4
:100A30006E204D61747269783A00546F6F20666160
:100A4000722066726F6D207265666572656E636591
:100A500020706F696E740A00454550524F4D204F0B
:100A60004B0A003F5A206F7574206F662072616ECA
:100A7000676520282D323020746F203230290A001B
:100A800050726F6265205A204F66667365743A2013
:100A900000496E76616C696420657874727564656E
:100AA000720A004361703A00220A00656E71756532
:100AB0007565696E672022006F6B00526573656E05
:100AC000643A20005072696E7465722073746F709E
:100AD0007065642064756520746F206572726F7232
:100AE000732E2046697820746865206572726F7273
:100AF00020616E6420757365204D39393920746F1B
:100B000020726573746172742E202854656D70654F
:100B10007261747572652069732072657365742ED5
:100B20002053657420697420616674657220726553
:100B30007374617274696E67290A004E6F2043688E
:100B400065636B73756D2077697468206C696E6579
:100B5000206E756D6265722C204C617374204C6937
:100B60006E653A2000636865636B73756D206D690F
:100B7000736D617463682C204C617374204C696ED2
:100B8000653A20004C696E65204E756D6265722075
:100B90006973206E6F74204C617374204C696E65AC
:100BA000204E756D6265722B312C204C6173742060
:100BB0004C696E653A20004D3131300000006643CB
:100BC0000000664300002043000000000000000019
:100BD00000000000290A002062797465733B2063DD
:100BE0007263200053657474696E67732053746F69
:100BF000726564202800454550524F4D2064617451
:100C00006173697A65206572726F722E0A00290A13
:100C1000002062797465733B206372632000207347
:100C2000746F7265642073657474696E6773207283
:100C30006574726965766564202800202863616C9C
:100C400063756C6174656429210A0020213D2000D0
:100C5000454550524F4D20435243206D69736D619D
:100C6000746368202D202873746F726564292000D6
:100C70002053697A653A2000496E6465783A20000D
:100C8000204D61726C696E3D563634290A00454527
:100C900050524F4D2076657273696F6E206D697387
:100CA0006D617463682028454550524F4D3D0048A2
:100CB000617264636F6465642044656661756C7419
:100CC0002053657474696E6773204C6F616465644A
:100CD0000A00E8030000E8030000320000001027CB
:100CE00000000080BB440080BB4400002F44000093
:100CF00016430000C8430000C8430000C84300007A
:100D0000C4423A0A0020204D383531205A005A2D6D
:100D100050726F6265204F666673657400204400F0
:100D200020490020204D33303120500050494420CC
:100D300073657474696E67733A0A0020204D34320B
:100D4000302053004175746F20426564204C6576F5
:100D5000656C696E673A0A00205A0020590020200D
:100D60004D323036205800486F6D65206F666673CF
:100D700065743A0A00204500205A00205900205886
:100D80000020540020530020204D323035204200F6
:100D900020453C6D61785F655F6A65726B3E00203F
:100DA000583C6D61785F785F6A65726B3E20593C94
:100DB0006D61785F795F6A65726B3E205A3C6D6148
:100DC000785F7A5F6A65726B3E00416476616E633C
:100DD00065643A20423C6D696E5F7365676D656E50
:100DE000745F74696D655F75733E20533C6D696E09
:100DF0005F66656564726174653E20543C6D696E22
:100E00005F74726176656C5F666565647261746556
:100E10003E0020540020520020204D32303420501B
:100E200000416363656C65726174696F6E2028753B
:100E30006E6974732F7332293A20503C7072696E58
:100E4000745F616363656C3E20523C7265747261CD
:100E500063745F616363656C3E20543C74726176B9
:100E6000656C5F616363656C3E0A00204500205A33
:100E70000020590020204D3230312058004D61783B
:100E8000696D756D20416363656C65726174696F2E
:100E90006E2028756E6974732F7332293A0A002008
:100EA0004500205A0020590020204D323033205870
:100EB000004D6178696D756D206665656472617459
:100EC00065732028756E6974732F73293A0A00536D
:100ED000746570732070657220756E69743A0A00CB
:100EE00020204D3230302044300A0020204D323056
:100EF000302044002044697361626C65640A0046D6
:100F0000696C616D656E742073657474696E677366
:100F10003A0020286D6D2900202047323120202002
:100F2000203B20556E69747320696E206D6D006FD3
:100F300070656E00545249474745524544003A2077
:100F4000007A5F6D6178007A5F6D696E00795F6D20
:100F5000696E00785F6D6178005265706F727469B8
:100F60006E6720656E6473746F702073746174753E
:100F7000730A00205A3A0020593A0020436F756ED8
:100F80007420583A0020453A00205A3A0020593A35
:100F900000583A0000006643000000000000000016
:100FA0000000A0410000A041000020415761726E86
:100FB000696E673A20486F6D696E672042756D7083
:100FC0002044697669736F72203C20310A00020266
:100FD000040000A0400000A04000000040000066A7
:100FE00043000066430000204301FFFF24F4D43097
:100FF00050C38E20C2A24017828B7011127A910DBD
:10100000816CD90AA861E108C75866076151430697
:101010001E4B5D05C145A7041A411104093D980303
:10102000713931034036DB0265339102D43054020A
:10103000802E1D02632CEE01752AC501B028A00187
:10104000102781018F2564012B244B01E0223401FC
:10105000AC211F018D200D01801FFC00841EED00BE
:10106000971DDF00B81CD200E61BC600201BBC0089
:10107000641AB200B219A8000A19A0006A189900EF
:10108000D117910040178B00B516840031167E00F1
:10109000B31579003A157300C7146F0058146A002D
:1010A000EE1366008813630025135E00C7125B0011
:1010B0006C12570015125400C111510070114F00ED
:1010C00021114B00D61049008D10470046104400F6
:1010D00002104200C00F4000800F3E00420F3C0053
:1010E000060F3B00CB0E3800930E37005C0E350028
:1010F000270E3400F30D3200C10D3100900D300089
:10110000600D2E00320D2D00050D2C00D90C2B008A
:10111000AE0C2900850C29005C0C2700350C27003B
:101120000E0C2600E80B2400C40B2400A00B2300A7
:101130007D0B23005A0B2100390B2100180B2000D6
:10114000F80A1F00D90A1E00BB0A1E009D0A1D00D6
:10115000800A1D00630A1C00470A1B002C0A1B00A2
:10116000110A1A00F7091A00DD091900C40919004B
:10117000AB091900920917007B09180063091700D1
:101180004C09160036091600200916000A09150038
:10119000F5081500E0081400CC081400B808140085
:1011A000A4081400900813007D0812006B081300B7
:1011B00058081200460812003408110023081100D4
:1011C0001208110001081100F0071000E0071000DC
:1011D000D0071000C0071000B0070F00A1071000D3
:1011E00091070E0083070F0074070F0065070E00BC
:1011F00057070E0049070E003B070D002E070E0093
:1012000020070D0013070D0006070D00F9060C005E
:10121000ED060D00E0060C00D4060C00C8060C001C
:10122000BC060C00B0060C00A4060B0099060C00CE
:101230008D060B0082060B0077060B006C060B0078
:1012400061060A0057060B004C060A0042060A0017
:1012500038060A002E060A0024060A001A060A00AA
:101260001006090007060A00FD050900F40509003B
:10127000EB050900E2050900D9050900D0050900C0
:10128000C7050900BE050900B5050800AD05080041
:10129000A50509009C050800940508008C050800B8
:1012A000840508007C050800740508006C0507002B
:1012B000650508005D050700560508004E05070096
:1012C00047050700400508003805070031050700FD
:1012D0002A050700230507001C0506001605070060
:1012E0000F0507000805060002050700FB040600BD
:1012F000F5040700EE040600E8040600E204070017
:10130000DB040600D5040600CF040600C90406006D
:10131000C3040600BD040600B7040600B1040500BE
:10132000AC040600A6040600A00405009B04060009
:1013300095040500900406008A0405008504050054
:10134000800406007A040500750405007004050099
:101350006B04050066040500610405005C040500DB
:1013600057040500520405004D040500480405001B
:10137000430405003E0404003A040500350405005A
:10138000300404002C040500270404002304050095
:101390001E0404001A0404001604050011040400CD
:1013A0000D04040009040500040404000004040002
:1013B000FC030400F8030400F4030400F003040039
:1013C000EC030400E8030400E4030400E003040069
:1013D000DC030400D8030400D4030400D003040099
:1013E000CC030400C8030300C503030024F404D99C
:1013F000201BC40C5C0E9804C4095F0265077101D0
:10140000F405F900FB04B30048048700C103690038
:101410005803550003034500BE023A008402310020
:1014200053022A002902250004022000E4011C00C6
:10143000C8011900AF0117009801140084011300BE
:10144000710110006101100051010E0043010D00F7
:1014500036010B002B010B0020010B0015010900C8
:101460000C01090003010800FB000800F30008005C
:10147000EB000700E4000600DE000600D8000600CE
:10148000D2000600CC000500C7000500C200050020
:10149000BD000400B9000400B5000400B100040060
:1014A000AD000400A9000400A5000300A200030091
:1014B0009F0004009B0003009800030095000200B9
:1014C00093000300900003008D0002008B000300D6
:1014D00088000200860002008400030081000200F0
:1014E0007F0002007D0002007B0002007900020004
:1014F0007700010076000200740002007200010013
:10150000710002006F0002006D0001006C0002001B
:101510006A00010069000200670001006600010026
:10152000650001006400020062000100610001002A
:10153000600001005F0002005D0001005C0001002E
:101540005B0001005A000100590001005800010031
:101550005700010056000100550001005400010031
:10156000530000005300010052000100510001002F
:10157000500001004F0001004E0000004E0001002D
:101580004D0001004C0001004B0000004B00010029
:101590004A00010049000100480000004800010025
:1015A0004700010046000000460001004500000021
:1015B0004500010044000100430000004300010019
:1015C0004200000042000100410000004100010013
:1015D000400001003F0000003F0001003E0000000D
:1015E0003E0001003D0000003D0001003C00000005
:1015F0003C0000003C0001003B0000003B000100FB
:101600003A0000003A0001003900000039000100F2
:1016100038000000380000003800010037000000EA
:1016200037000100360000003600000036000100DF
:1016300035000000350000003500010034000000D6
:1016400034000000340001003300000033000000CB
:1016500033000100320000003200000032000100BF
:1016600031000000310000003100010030000000B6
:1016700030000000300001002F0000002F000000AB
:101680002F0000002F0001002E0000002E0000009F
:101690002E0001002D0000002D0000002D00000094
:1016A0002D0001002C0000002C0000002C00000088
:1016B0002C0001002B0000002B0000002B0000007C
:1016C0002B0001002A0000002A0000002A00000070
:1016D0002A00010029000000290000002900000064
:1016E0002900000029000100280000002800000057
:1016F000280000002800000028000100270000004A
:10170000270000002700000027000000270001003C
:101710002600000026000000260000002600000031
:101720002600010025000000250000002500000023
:101730002500000025000000250001002400000015
:101740002400000024000000240000002400010008
:1017500023000000230000002300000023000000FD
:1017600023000000230000002300010022000000ED
:1017700022000000220000002200000022000000E1
:1017800022000100210000002100000021000000D3
:1017900021000000210000002100000021000100C4
:1017A00020000000200000002000000020000000B9
:1017B00020000000200000002000000020000100A8
:1017C0001F0000001F0000001F0000001F0000009D
:1017D0001F0000001F0000001F0001001E0000008D
:1017E0001E0000001E0000001E0000000437000064
:1017F0001E290000511B00005810000010090000B5
:10180000CC04000078020000410100006265640021
:101810002C2073797374656D2073746F70706564B8
:1018200021204865617465725F49443A2000426531
:10183000642068656174696E67206661696C6564BF
:101840000048656174696E67206661696C65640053
:1018500042454420544845524D414C2052554E413A
:1018600057415900546865726D616C2052756E6104
:101870007761790045312048656174696E6720663B
:1018800061696C65640048656174696E67206661B2
:10189000696C656400453120544845524D414C20E7
:1018A00052554E4157415900546865726D616C2024
:1018B00052756E617761790070012C0190012701EA
:1018C000B0012201C0011D01F00118011002130135
:1018D00030020E016002090190020401C002FF0003
:1018E0000003FA004003F5008003F000D003EB0092
:1018F0002004E6007004E100E004DC004005D700AD
:10190000C005D2004006CD00D006C8008007C30045
:101910003008BE00F008B900C009B400B00AAF003A
:10192000B00BAA00D00CA500000EA000500F9B0029
:10193000C01096005012910000148C00C015870052
:10194000B0178200B0197D00D01B7800001E730014
:1019500040206E0090226900F024640040275F0060
:1019600090295A00E02B5500102E500020304B00DB
:1019700010324600E033410090353C00103737000C
:1019800070383200A0392D00B03A2800A03B230067
:10199000603C1E00103D1900903D1400103E0F00E9
:1019A000703E0A00C03E0500003F0000403FFBFFC4
:1019B000803FF6FFC03FF1FF453120544845524D6E
:1019C000414C2052554E4157415900424544205404
:1019D0004845524D414C2052554E415741590054B3
:1019E0006865726D616C2052756E61776179004532
:1019F00031204572723A204D415854454D500045B2
:101A000072723A204D415854454D50204245440091
:101A10004D415854454D5020747269676765726531
:101A200064004531204572723A204D494E54454D6F
:101A300050004572723A204D494E54454D50204257
:101A40004544004D494E54454D50207472696767B6
:101A50006572656400202F002042403A0020403A21
:101A60000000002100240027002A002D0030003350
:101A70000001010000040107010A01000022002505
:101A80000028002B002E0031003400020100000568
:101A90000108010B01000020002300260029002C72
:101AA000002F0032000001000003010601090105BA
:101AB000050505070508080808020202020A0A08C7
:101AC00008040404040101010101010101030303ED
:101AD0000303030303040707070C0C0C0C0C0C0C8A
:101AE0000C0202020206060606060606060B0B0B91
:101AF0000B0B0B0B0B0102102020080810204010CC
:101B000020408002010201080402010102040810C1
:101B100020408080402010080402018004020180DF
:101B20004020100804020108040201010204081008
:101B3000204080010204081020408000000A0B02AF
:101B4000090C0D0E0807030401000000000000004E
:101B50000000000000000000000000000000000085
:101B60000000000000000012111000000000000042
:101B70000000000000000000000000000000000065
:101B8000002020506C616E6E6572427566666572EB
:101B900042797465733A20002046726565204D6570
:101BA0006D6F72793A2000436F6D70696C65643AAD
:101BB000204A756E20323920323032300A00207CC3
:101BC00020417574686F723A20284B726F746F737E
:101BD0002C2064656661756C7420636F6E6669673E
:101BE000290A00323031382D30312D323000204C6E
:101BF00061737420557064617465643A2000627585
:101C0000676669782D322E302E780A004D61726C2D
:101C1000696E0020536F6674776172652052657338
:101C200065740A00205761746368646F67205265A9
:101C30007365740A002042726F776E206F7574208E
:101C400052657365740A002045787465726E616C24
:101C50002052657365740A00506F77657255700A7B
:101C60000073746172740A00205A3A0020593A00D5
:101C700020583A00656E6473746F707320686974DD
:101C80003A200050726F62696E67206661696C6508
:101C9000640A0020746F6F206C6F6E672065787423
:101CA000727573696F6E2070726576656E746564A7
:101CB0000A0020636F6C6420657874727573696FB5
:101CC0006E2070726576656E7465640A00206669C0
:101CD0007273740A00486F6D652000220A00556E09
:101CE0006B6E6F776E20636F6D6D616E643A20224C
:101CF00000204500205A00205900204D393220583C
:101D0000005072696E7465722068616C7465642E2F
:101D1000206B696C6C28292063616C6C6564210AF6
:101D20000000188711241FBECFEFD1E2DEBFCDBF68
:101D300000E00CBF14E0A0E0B2E0E2E9F6E201E06E
:101D40000BBF02C007900D92A635B107D9F72DE061
:101D5000A6E5B4E001C01D92AA3EB207E1F71EE07D
:101D6000C2E9DEE000E006C021970109802FFE01F4
:101D70000E94FE92C139D10780E00807A9F70E94AE
:101D800039840C9447930C940000FC01DB018C9186
:101D900020813181382798E0A901220F331F57FD98
:101DA00005C09150C9F7318320830895B1E22B27F4
:101DB000B0E13B27F6CF8150823108F05AC0E82FBE
:101DC000F0E08827E951F14F8F4F0C94FE92070FF6
:101DD0000B0FF90EFF0E030F390F0E0F140F180F14
:101DE0001E0F220F260F2C0F300F390F340F3A0F12
:101DF0003E0F809180008F778093800008958091BE
:101E000080008F7DF9CF80918000877FF5CF84B5EA
:101E10008F7784BD089584B58F7DFBCF8091B0000E
:101E20008F778093B00008958091B0008F7DF9CFB7
:101E3000809190008F77809390000895809190001A
:101E40008F7DF9CF80919000877FF5CF8091A000A2
:101E50008F778093A00008958091A0008F7DF9CFA7
:101E60008091A000877FF5CF809120018F778093AC
:101E700020010895809120018F7DF9CF809120016C
:101E8000877FF5CFCF93DF93282F30E0F901E55C12
:101E9000F44E8491F901EB50F54ED491F901E155DE
:101EA000F54EC491CC23A1F081110E94DB0EEC2FE2
:101EB000F0E0EE0FFF1FEB56F54EA591B491EC91BB
:101EC000ED2381E090E009F480E0DF91CF91089567
:101ED00080E090E0FACF1F93CF93DF93282F30E07C
:101EE000F901E55CF44E8491F901EB50F54ED49183
:101EF000F901E155F54EC491CC23A9F0162F8111BB
:101F00000E94DB0EEC2FF0E0EE0FFF1FE558F54EC0
:101F1000A591B4918FB7F894EC91111108C0D095A8
:101F2000DE23DC938FBFDF91CF911F910895DE2BCD
:101F3000F8CFCF93DF9390E0FC01EB50F54E249166
:101F40008155954EFC0184918823D1F090E0880F53
:101F5000991FFC01EF59F54EA591B491FC01E5588C
:101F6000F54EC591D49161110EC09FB7F8948C9134
:101F7000E22FE0958E238C932881E223E8839FBF94
:101F8000DF91CF9108958FB7F894EC91E22BEC9309
:101F90008FBFF6CF1F93CF93DF93182FEB0161E034
:101FA0000E94990F209739F460E0812FDF91CF9143
:101FB0001F910C946B0FCF3FD10511F461E0F5CF69
:101FC000E12FF0E0E55CF44EE491E150E23108F0FD
:101FD000B3C0F0E08827E051F04F8F4F0C94FE9291
:101FE00002100A100F10191023109C102D1035101C
:101FF0003D10471051105B106A1074109C107E1039
:102000008810921084B5806884BDC7BDDF91CF91E0
:102010001F91089584B5806284BDC8BDF7CF8091BB
:102020008000806880938000D0938900C0938800EE
:10203000EDCF80918000806280938000D0938B00F0
:10204000C0938A00E3CF80918000886080938000F5
:10205000D0938D00C0938C00D9CF8091B000806860
:102060008093B000C093B300D1CF8091B000806264
:102070008093B000C093B400C9CF80919000806875
:1020800080939000D0939900C0939800BFCF809127
:102090009000806280939000D0939B00C0939A0040
:1020A000B5CF80919000886080939000D0939D0080
:1020B000C0939C00ABCF8091A00080688093A0006B
:1020C0008091A0008F7B8093A000D093A900C09343
:1020D000A8009CCF8091A00080628093A000D09344
:1020E000AB00C093AA0092CF8091A000886080933B
:1020F000A000D093AD00C093AC0088CF80912001A8
:10210000806880932001D0932901C09328017ECF5D
:1021100080912001806280932001D0932B01C09395
:102120002A0174CF80912001886080932001D09390
:102130002D01C0932C016ACFC038D1050CF03ECFE1
:1021400033CF3FB7F89480918C0690918D06A09183
:102150008E06B0918F0626B5A89B05C02F3F19F0BB
:102160000196A11DB11D3FBFBA2FA92F982F882717
:10217000BC01CD01620F711D811D911D42E0660FF2
:10218000771F881F991F4A95D1F708958F929F92C4
:10219000AF92BF92CF92DF92EF92FF926B017C01E0
:1021A0000E94A1104B015C01C114D104E104F104AF
:1021B000B9F00E94A110681979098A099B09683E43
:1021C00073408105910580F321E0C21AD108E1082E
:1021D000F10888EE880E83E0981EA11CB11CE4CFA4
:1021E000FF90EF90DF90CF90BF90AF909F908F9037
:1021F00008952FB7F89460918806709189068091B0
:102200008A0690918B062FBF0895CF92DF92EF92AE
:10221000FF926091D50D7091D60D61157105C9F1D0
:10222000C090D10DD090D20DE090D30DF090D40D90
:1022300066507109072E000C880B990B0E947C8B4D
:102240009B01AC01C701B6010E94758B87FF21C0BD
:1022500020E030E040E050E4C701B6010E94A58FC5
:102260000E9418917093C80D6093C70D0E94F910D9
:10227000605E714B8F4F9F4F6093C90D7093CA0D75
:102280008093CB0D9093CC0DFF90EF90DF90CF908B
:1022900008951092C90D1092CA0D1092CB0D109294
:1022A000CC0DF2CFCF92DF92EF92FF926091840635
:1022B0007091850661157105B9F1C0908006D090C6
:1022C0008106E0908206F090830666507109072E21
:1022D000000C880B990B0E947C8BA70196010E9431
:1022E000059218160CF520E030E040E050E4C701FC
:1022F000B6010E94A58F0E941891709369066093A1
:1023000068060E94F910605A75418F4F9F4F609385
:102310006A0670936B0680936C0690936D06FF902F
:10232000EF90DF90CF90089510926A0610926B069E
:1023300010926C0610926D06F2CFCF93DF9310923D
:102340007606C0913F02D09140022F971C161D06C1
:1023500014F4D0E0C0E0D093D60DC093D50D0E9408
:10236000051110928506109284060E945211D09396
:10237000D60DC093D50D0E9405111092D70D2C9843
:1023800010928506109284061092860680910201B2
:10239000807280930001DF91CF9108958F929F9278
:1023A000AF92BF92CF92DF92EF92FF920F931F9363
:1023B000CF93DF93B0E4A0E06A2F70E0AB014B0F46
:1023C000511D55954795A41711F0B41319C0E6EBAC
:1023D000F9E165917491072E000C880B990B0E940E
:1023E0007C8BDF91CF911F910F91FF90EF90DF9049
:1023F000CF90BF90AF909F908F900895B42FDECF75
:102400009A0121503109220F331F220F331FF90186
:10241000E854F74EE590F490F901E454F74EC59175
:10242000D4918E159F0554F3A42FC817D9070CF427
:10243000C3CFF901E654F74E05911491F901E25426
:10244000F74EC590D490BC016E197F09072E000C81
:10245000880B990B0E947C8B4B015C01B601601BC1
:10246000710B072E000C880B990B0E947C8B9B0133
:10247000AC01C501B4010E94DB8B4B015C01BE01C4
:102480006E197F09072E000C880B990B0E947C8B1C
:102490009B01AC01C501B4010E949F906B017C01BE
:1024A000B801110F880B990B0E947C8B9B01AC012A
:1024B000C701B6010E94A58F94CF90916F00292F7C
:1024C000227091FF05C090916F009D7F90936F00E7
:1024D00034E0839FC0011124FC01EC5CF94F408182
:1024E000518162817381885D994FFC0140835183E2
:1024F0006283738381E080932706222329F08091F1
:102500006F00826080936F000895BC0120912506C2
:10251000309126064091250650912606241735074E
:1025200031F481E02617370709F080E008959A0119
:10253000F1CF8091960680FF28C0899A8FEF809313
:10254000DB058091960681FF23C08F9A8FEF8093E1
:10255000DC058091960682FF1EC080910B0180955C
:102560008270809309018FEF8093DD05809196063C
:1025700083FF18C016988FEF8093DE0500000000DF
:1025800082E08A950000E9F70895899881E0D7CF25
:102590008F9881E0DCCF80910B01827080930901DC
:1025A00081E0E2CF169A81E0E7CF80913C0D9091D7
:1025B0003B0D891B8F7019F490E080E00895909195
:1025C0008A08992351F0833030F48FEF890F19F086
:1025D00080938A08F1CF10928A0880913B0D2BE4FA
:1025E000829FC00111248557974FFC01208120FD57
:1025F000E3CF20913B0D2F5F2F7020937508309112
:102600003B0D20918908321304C020917508209356
:102610008908089520913F02309140022F503109DE
:10262000821793070CF49C013093D60D2093D50D9F
:102630000C940511AF92BF92CF92DF92EF92FF926E
:102640000F931F93CF93DF93C7E7DDE001E618E018
:1026500087E8A82E8DE0B82EC12CD12C7601C3942A
:1026600069917991899199910E947A8B2889398908
:102670004A895B890E94DB8B0E941891F801619363
:102680007193819391938F01C616D706E806F906D8
:1026900010F46B017C01AC16BD0611F76FEF7FEFF4
:1026A000CB01A70196010E94688F20937108309397
:1026B00072084093730850937408DF91CF911F9173
:1026C0000F91FF90EF90DF90CF90BF90AF90089563
:1026D000CF93DF9390916F00292F227091FF05C057
:1026E00090916F009D7F90936F0094E0899FA0016F
:1026F0001124FA01EC5CF94F608171818281938130
:10270000222329F020916F00226020936F00EA01BC
:10271000C858D74F0E947C8B288139814A815B81C0
:102720000E94DB8BDF91CF910895CF93DF9390913F
:102730006F00292F227091FF05C090916F009D7F3F
:1027400090936F0094E0899FA0011124FA01E85D45
:10275000F94F6081718182819381222329F0209138
:102760006F00226020936F00EA01C858D74F0E9483
:102770007C8B288139814A815B810E94DB8BDF91D0
:10278000CF91089580916F00982F927081FF05C0BE
:1027900080916F008D7F80936F0080913B0D8093BF
:1027A0003C0D809389088093750884E680938A089D
:1027B00028EE33E030933E0D20933D0D992329F010
:1027C00080916F00826080936F0081E08093270684
:1027D0000895CF92DF92EF92FF928091D2058823E5
:1027E00009F457C0C090D705D090D805E090D9051E
:1027F000F090DA0520E030E0A901C701B6010E949F
:10280000758B882309F445C020E030E040E05FE3A9
:10281000C701B6010E94DB8B9B01AC010E94DB8BE0
:102820002BED3FE049E450E40E94DB8B9B01AC01BF
:1028300060E070E080E89FE30E949F906B017C0164
:10284000C092D305D092D405E092D505F092D6057A
:102850006091210270912202072E000C880B990BC7
:102860000E947C8B2AE037ED43E25CE30E94DB8B25
:10287000A70196010E94DB8B6093490270934A0284
:1028800080934B0290934C02FF90EF90DF90CF909B
:102890000895C12CD12C80E8E82E8FE3F82ED0CFFC
:1028A000CF92DF92EF92FF92CF93DF93EC01C09033
:1028B0000902D0900A02E0900B02F0900C022881ED
:1028C00039814A815B81C701B6010E9405921816C1
:1028D00024F4C882D982EA82FB82C0900D02D09093
:1028E0000E02E0900F02F0901002288139814A8197
:1028F0005B81C701B6010E94758B87FF04C0C88247
:10290000D982EA82FB82C0901102D0901202E0903C
:102910001302F09014022C813D814E815F81C7012A
:10292000B6010E940592181624F4CC82DD82EE8254
:10293000FF82C0901502D0901602E0901702F0902E
:1029400018022C813D814E815F81C701B6010E9432
:10295000758B87FF04C0CC82DD82EE82FF82C0903F
:102960001D02D0901E02E0901F02F09020022885E8
:1029700039854A855B85C701B6010E94758B87FF43
:1029800004C0C886D986EA86FB86DF91CF91FF9086
:10299000EF90DF90CF900895CF93DF9324E0829F54
:1029A000C0011124EC01C75DD74FFC01E856F94F77
:1029B0008A549A4FDC012D913D914D915C9160813B
:1029C0007181828193810E94A58F688379838A8334
:1029D0009B83DF91CF9108958091B2059091B305CB
:1029E000A091B405B091B50580934502909346023D
:1029F000A0934702B09348028091B0059091B10531
:102A00009093080280930702089580914502909167
:102A10004602A0914702B09148028093B20590937C
:102A2000B305A093B405B093B505809107029091CA
:102A300008029093B1058093B00584E690E09093EE
:102A40000802809307020895CF93DF938091950643
:102A5000811105C080919706882309F46CC080918C
:102A6000A305649958C08F7E8093A30590910301BC
:102A70008091A30591FD51C08D7F8093A305809126
:102A8000A3054B994CC084608093A3058091A30556
:102A90004A9947C080648093A305C0911806C0FF7F
:102AA00010C08091960680FD0CC08091A30584FF24
:102AB00008C08091270880618093270880E00E94E9
:102AC0005D12C1FF10C08091960681FF0CC08091FD
:102AD000A30581FF08C080912708826080932708A2
:102AE00081E00E945D12C2FF26C08091960682FF9F
:102AF0001AC0809197068823F1F08091A30582FF88
:102B00001AC08091270884608093270882E0DF91B3
:102B1000CF910C945D128061A7CF8260AECF8B7F86
:102B2000B3CF8F7BB8CF8091A30586FF04C080917F
:102B300027088064E9CFDF91CF9108952F923F92CB
:102B40004F925F926F927F928F929F92AF92BF92BD
:102B5000CF92DF92EF92FF920F931F93CF93DF9369
:102B6000CDB7DEB72C970FB6F894DEBF0FBECDBF42
:102B70009C878B878B011A013E832D83D9018D9110
:102B80009D910D90BC91A02D89839A83AB83BC83CA
:102B9000FA01C080D180E280F380DB018D909D90AE
:102BA000AD90BC90EB85FC852481358146815781B1
:102BB000C501B4010E94DB8B2B013C01AB85BC85B8
:102BC00050962D913D914D915C915397C701B6015F
:102BD0000E94DB8B9B01AC01C301B2010E94A58F57
:102BE0002B013C01EB85FC85248D358D468D578D61
:102BF00069817A818B819C810E94DB8B9B01AC0176
:102C0000C301B2010E94A58F6F83788789879A8755
:102C1000AB85BC8518962D913D914D915C911B978C
:102C2000C501B4010E94DB8B2B013C01EB85FC85C7
:102C30002489358946895789C701B6010E94DB8BF3
:102C40009B01AC01C301B2010E94A58F2B013C0185
:102C5000AB85BC8590962D913D914D915C9193975C
:102C600069817A818B819C810E94DB8B9B01AC0105
:102C7000C301B2010E94A58F2B013C01EB85FC85AD
:102C80002081318142815381C501B4010E94DB8BD7
:102C90004B015C01AB85BC851C962D913D914D91FE
:102CA0005C911F97C701B6010E94DB8B9B01AC01B1
:102CB000C501B4010E94A58F6B017C01EB85FC85E9
:102CC000208D318D428D538D69817A818B819C81DC
:102CD0000E94DB8B9B01AC01C701B6010E94A58F4E
:102CE000D8016D937D938D939C9313978F819885D5
:102CF000A985BA85F10180839183A283B383AD81D5
:102D0000BE814D925D926D927C9213972C960FB678
:102D1000F894DEBF0FBECDBFDF91CF911F910F9111
:102D2000FF90EF90DF90CF90BF90AF909F908F90EB
:102D30007F906F905F904F903F902F900895CF922B
:102D4000DF92EF92FF920F931F93CF93DF9300D008
:102D500000D01F921F92CDB7DEB77C018B016A01B4
:102D600020E030E046E653E4FC016081718182811D
:102D700093810E94A48F69837A838B839C83F8015B
:102D800080819181A281B3818D839E83AF83B88737
:102D90009601AE014B5F5F4FBE016F5F7F4F80E5D5
:102DA0009DE00E949E1520E030E046E653E46981F4
:102DB0007A818B819C810E94A58FF701608371834A
:102DC0008283938320E030E0A9016D817E818F8131
:102DD00098850E94A58FF801608371838283938315
:102DE00028960FB6F894DEBF0FBECDBFDF91CF910E
:102DF0001F910F91FF90EF90DF90CF9008950F9368
:102E00001F93CF93DF93CDB7DEB7AC970FB6F8948F
:102E1000DEBF0FBECDBF2091BF0D222309F4AFC08E
:102E20008C018091500D9091510DA091520DB09157
:102E3000530D89839A83AB83BC8380915C0D909101
:102E40005D0DA0915E0DB0915F0D8D839E83AF836C
:102E5000B8878091680D9091690DA0916A0DB0912D
:102E60006B0D89879A87AB87BC878091540D9091B1
:102E7000550DA091560DB091570D8D879E87AF8748
:102E8000B88B8091600D9091610DA091620DB09111
:102E9000630D898B9A8BAB8BBC8B80916C0D909161
:102EA0006D0DA0916E0DB0916F0D8D8B9E8BAF8BC4
:102EB000B88F8091580D9091590DA0915A0DB091F5
:102EC0005B0D898F9A8FAB8FBC8F8091640D909131
:102ED000650DA091660DB091670D8D8F9E8FAF8FA0
:102EE000B8A38091700D9091710DA091720DB09169
:102EF000730D89A39AA3ABA3BCA320E030E046E600
:102F000053E4F80160817181828193810E94A48FD2
:102F100069A77AA78BA79CA7F80184819581A681D0
:102F2000B7818DA39EA3AFA3B8A79801285F3F4F99
:102F3000AE014B5D5F4FBE01675D7F4FCE010196D5
:102F40000E949E1520E030E046E653E469A57AA58C
:102F50008BA59CA50E94A58FF80160837183828355
:102F6000938320E030E0A9016DA17EA18FA198A5F7
:102F70000E94A58FF8016483758386839783AC963E
:102F80000FB6F894DEBF0FBECDBFDF91CF911F917A
:102F90000F9108950F931F9380919405813019F537
:102FA0000E94F91000918C0510918D0520918E05DD
:102FB00030918F05601B710B820B930B28EE33E071
:102FC00040E050E00E94688F60918805709189050B
:102FD00080918A0590918B05620F731F841F951F46
:102FE0001F910F91089560919005709191058091C6
:102FF000920590919305D6CF1092940510928C056E
:1030000010928D0510928E0510928F0510929005EA
:1030100010929105109292051092930510928805D6
:103020001092890510928A0510928B05089580915F
:1030300094058130F1F08230C9F40E94CA17609380
:1030400088057093890580938A0590938B0581E0AC
:10305000809394050E94F91060938C0570938D0500
:1030600080938E0590938F0581E008950E94FC1750
:10307000EECF80E00895809194058150823070F405
:10308000109294050E94F910609390057093910539
:10309000809392059093930581E0089580E00895D0
:1030A00090912205E92FF0E0E057F94F80839F5F70
:1030B000943040F490932205809126088F5F80938E
:1030C0002608089510922205F7CF4F925F926F92D3
:1030D0007F928F929F92AF92BF92CF92DF92EF92A8
:1030E000FF92CF934B015C0169017A0127E137EB35
:1030F00041ED58EBC701B6010E94059287FD50C013
:1031000027E030E046E653E4C701B6010E94758B24
:1031100018160CF445C020E030E040E251E4C5014F
:10312000B4010E94A48F2B013C0127E137EB41ED54
:1031300058EB0E94059287FD33C027E030E046E659
:1031400053E4C301B2010E94758B18164CF127E9B4
:103150003FEF4FE151E4C501B4010E94059287FDA4
:103160001FC027E030E04CE553E4C501B4010E94E4
:10317000758B1816ACF027E93FEF4FE151E4C7011A
:10318000B6010E94059287FD0BC0C1E027E030E048
:103190004CE553E4C701B6010E94758B18160CF478
:1031A000C0E08C2FCF91FF90EF90DF90CF90BF9039
:1031B000AF909F908F907F906F905F904F90089509
:1031C0002FEB280F2A3108F042C0E22FF0E0809167
:1031D000950490919604A0919704B091980404C02E
:1031E000B695A795979587952A95D2F780FD02C049
:1031F00081700895E558FB4FE081EE2329F180911D
:10320000750D9091760DE80FF92FF11D808190EDED
:10321000980F9A3030F08E3251F4818180538A3089
:1032200098F4F0937804E093770481E008958D3268
:1032300011F08B3249F4818190ED980F9A3088F328
:103240008E3211F48281EACFF0E0E0E0EACF80E054
:1032500008950E94E018882341F081E020917704CE
:1032600030917804232B09F480E008959091C000F8
:1032700095FFFCCF8093C6000895CF93DF93EC01B8
:10328000FE0184912196882319F00E943619F8CF07
:10329000DF91CF910895CF93C82FCB010E943D19A4
:1032A0008EE39FE00E943D198FE29FE0CC2311F056
:1032B00084E39FE00E943D198AE0CF910C94361977
:1032C000CF9389E59FE00E943D198CB163E57FE0D3
:1032D000829581700E944B19809103016DE47FE01B
:1032E000869581700E944B1989B1C1E083FB8827C4
:1032F00080F967E47FE08C270E944B1989B182FB3B
:10330000882780F961E47FE08C27CF910C944B19DA
:103310000F931F93CF93DF938B010E943D19E80118
:103320008991882319F00E943619FACFDF91CF9145
:103330001F910F91089582ED92E00C943D190E9427
:103340009D110E949B1981E09DE10E943D1989EE2B
:1033500093E030E6019729F0232F2A950000E9F742
:10336000F9CFF89489EE93E038EE019729F0232FF6
:103370002A950000E9F7F9CF0E949D11269A2E9A0E
:103380001092C60DA895FECF8CEC92E00C943D19DE
:103390000E94C4196091750D7091760D8EED9CE1BF
:1033A0000E9488198BED9CE10C943D191F93CF93DB
:1033B000DF938091740DD82FD270C82FC470182F4E
:1033C000117080FF05C0DD2319F080E0C1111AC023
:1033D0000E94C41985ED9CE10E943D19111103C0A2
:1033E00088E50E943619D11103C089E50E9436197B
:1033F000C11103C08AE50E9436198DEC9CE10E9440
:103400003D1981E0DF91CF911F9108958091A00433
:103410009091A1042FEF3FEF981751F0E92FF0E0C2
:10342000E056FB4F228130E09F5F9F779093A1048D
:10343000C90108958F929F92AF92BF92CF92DF926F
:10344000EF92FF920F931F93CF93DF93B0E4A0E02E
:103450006A2F70E0AB014B0F511D559547954A17E8
:1034600011F0B41319C0E6EBF9E165917491072EE0
:10347000000C880B990B0E947C8BDF91CF911F91E0
:103480000F91FF90EF90DF90CF90BF90AF909F9003
:103490008F900895B42FDECF9A0121503109220F69
:1034A000331F220F331FF901E854F74EE590F490D3
:1034B000F901E454F74EC591D4918E159F0554F34C
:1034C000A42FC817D9070CF4C3CFF901E654F74E5F
:1034D00005911491F901E254F74EC590D490BC01C6
:1034E0006E197F09072E000C880B990B0E947C8BAC
:1034F0004B015C01B601601B710B072E000C880BA1
:10350000990B0E947C8B9B01AC01C501B4010E9408
:10351000DB8B4B015C01BE016E197F09072E000C8D
:10352000880B990B0E947C8B9B01AC01C501B401F7
:103530000E949F906B017C01B801110F880B990BC1
:103540000E947C8B9B01AC01C701B6010E94A58F34
:1035500094CFCF93DF93CDECDDE08A819B810E94F5
:103560001A1A6C837D838E839F83CCE7D6E08A8191
:103570009B810E94CE116C837D838E839F83A8954F
:1035800010927706DF91CF910895CF92DF92EF925C
:10359000FF920F931F93CF93DF93CDB7DEB7A09722
:1035A0000FB6F894DEBF0FBECDBF61157105810562
:1035B000910579F100E0C42ED12CF12CE12CA7016A
:1035C00096010E94688F11E0100FE1E0F0E0EC0F2F
:1035D000FD1FE00FF11D07FDFA956083B901CA01D7
:1035E000012F611571058105910549F7115010F101
:1035F000E1E0F0E0EC0FFD1FE10FF11D17FDFA9582
:10360000908187E39A3008F480E3890F0E9436198D
:10361000EDCF80E3A0960FB6F894DEBF0FBECDBF0E
:10362000DF91CF911F910F91FF90EF90DF90CF909E
:103630000C943619A0960FB6F894DEBF0FBECDBF1E
:10364000DF91CF911F910F91FF90EF90DF90CF907E
:103650000895CF93DF93EB010E943D19BE0190E0E6
:1036600080E04AE0DF91CF910C94C51ACF92DF92AF
:10367000EF92FF926B017C01F7FE0BC08DE20E947E
:103680003619F094E094D094C094C11CD11CE11C74
:10369000F11C4AE0C701B601FF90EF90DF90CF9098
:1036A0000C94C51ACF93DF93EB010E943D19BE0124
:1036B000DD0F880B990BDF91CF910C94361B0F9384
:1036C0001F93CF93C82F8B0180913302882399F0E9
:1036D0000E949B19C8010E943D1980E198E10E9457
:1036E0003D19C11113C060E070E0CB010E94361B90
:1036F0008AE00E9436198091440681110CC0109214
:10370000330281E0809344060E949F198CE098E187
:103710000E943D19EDCFCF911F910F910C949D11F7
:103720003F924F925F926F927F928F929F92AF9251
:10373000BF92CF92DF92EF92FF920F931F93CF939E
:10374000DF936C015B01322E4801C1E0D0E0211112
:1037500002C0D0E0C0E0FA014080518062807380F6
:10376000CC0FDD1FCC0FDD1F8E010259194FA301B5
:103770009201F80160817181828193810E94758B31
:10378000882391F0F801408251826282738211E0B5
:1037900020E030E0A901C301B2010E940592181691
:1037A0000CF010E0F6011483F60184818230C9F038
:1037B000833009F463C0813009F03FC0FE01E25953
:1037C000F94F2081318142815381F50160817181FE
:1037D000828193810E94758B87FD2FC082E0F60164
:1037E0008483C259D94FB70190E080E00E947A8B60
:1037F0009B01AC01688179818A819B810E94A48FA1
:103800009B01AC01F50160817181828193810E94ED
:10381000059287FD24C00E94F9102B013C01940100
:10382000A8EEB3E00E94958F460E571E681E791EC3
:10383000F6014082518262827382DF91CF911F91A3
:103840000F91FF90EF90DF90CF90BF90AF909F903F
:103850008F907F906F905F904F903F9008950E945F
:10386000F910F6010081118122813381601B710BF7
:10387000820B930B97FDE1CF83E08483FFEF48EB4E
:1038800059E13F1202C04BEC59E16FED79E1832D14
:10389000DF91CF911F910F91FF90EF90DF90CF902C
:1038A000BF90AF909F908F907F906F905F904F9060
:1038B0003F900C945F1B4F925F926F927F928F921A
:1038C0009F92AF92BF92CF92DF92EF92FF920F93AF
:1038D0001F93CF93DF93CDB7DEB760970FB6F89401
:1038E000DEBF0FBECDBF80917706811117C06096F5
:1038F0000FB6F894DEBF0FBECDBFDF91CF911F9101
:103900000F91FF90EF90DF90CF90BF90AF909F907E
:103910008F907F906F905F904F9008950E94A91AAA
:103920000E94F9104B015C0160913F0270914002CE
:10393000072E000C880B990B0E947C8B2B013C01FD
:10394000AC019B016091D10D7091D20D8091D30D8E
:103950009091D40D0E94059218160CF44AC2609101
:10396000D50D7091D60D072E000C880B990B0E9477
:103970007C8B69837A838B839C8324E0E22EF12CF9
:1039800008E210E020E0AE014F5F5F4F61ED7DE0A7
:1039900083E696E00E94901BC090D10DD090D20D8E
:1039A000E090D30DF090D40D60913D0270913E02F5
:1039B000072E000C880B990B0E947C8B9B01AC019D
:1039C000C701B6010E94059218160CF01FC1A7018D
:1039D0009601C301B2010E94059218160CF016C19F
:1039E0000091D50D1091D60D20ED3CEC4CE45DE33B
:1039F0006091E00D7091E10D8091E20D9091E30DE9
:103A00000E94DB8B2B013C0120915606309157061A
:103A10004091580650915906C701B6010E94A48FE3
:103A20009B01AC01C301B2010E94DB8B2B013C0165
:103A300023E333E343E75FE360915206709153065B
:103A400080915406909155060E94DB8B9B01AC013E
:103A5000C301B2010E94A58F2B013C014092520686
:103A6000509253066092540670925506C0925606C4
:103A7000D0925706E0925806F092590601151105AA
:103A800009F4C5C1B801110F880B990B0E947C8BFA
:103A9000A70196010E94A48F6D837E838F839887F0
:103AA00020E030E040E251EC0E94758B87FDAFC111
:103AB00020E030E040E251E46D817E818F81988585
:103AC0000E94059218160CF4A8C180914906811134
:103AD000B6C1609145067091460680914706909167
:103AE00048062D813E814F8158850E94A58F6987A8
:103AF0007A878B879C8760934506709346068093F0
:103B00004706909348062091D80D3091D90D4091E9
:103B1000DA0D5091DB0D6D817E818F8198850E9439
:103B2000DB8B6D877E878F87988B60934A067093B7
:103B30004B0680934C0690934D062091DC0D3091FE
:103B4000DD0D4091DE0D5091DF0D69857A858B8505
:103B50009C850E94DB8B9B01AC0120934E06309329
:103B60004F0640935006509351066D857E858F8594
:103B700098890E94A58FA30192010E94A48F2B0116
:103B80003C0120E030E04FE753E40E94059220E042
:103B900030E0A90118160CF045C16D817E818F813E
:103BA00098850E940592181694F42D813E814F81CC
:103BB000588569857A858B859C850E94A48F609342
:103BC00045067093460680934706909348066FE734
:103BD0001EC020E030E0A9016D817E818F81988533
:103BE0000E94758B87FF12C02D813E814F815885C1
:103BF00069857A858B859C850E94A48F6093450694
:103C000070934606809347069093480660E0609361
:103C1000D70D8091C90D9091CA0DA091CB0DB09197
:103C2000CC0D0097A105B10509F1A5019401281B50
:103C3000390B4A0B5B0BDA01C901B7FD17C0609164
:103C4000C70D7091C80D90E080E00E947A8B9B01B7
:103C5000AC01C701B6010E94758B87FFD2C044E753
:103C600058E166E878E180E00E945F1B20E030E0E8
:103C700046E153E46091800670918106809182064E
:103C8000909183060E94059218160CF4AAC08091A8
:103C90006A0690916B06A0916C06B0916D06009734
:103CA000A105B10539F1A5019401281B390B4A0B77
:103CB0005B0BDA01C901B7FD1DC060916806709108
:103CC000690690E080E00E947A8B9B01AC016091D4
:103CD00080067091810680918206909183060E94F1
:103CE000758B87FF91C04EE258E161E478E18FEF78
:103CF0000E945F1B80915F0690916006A091610613
:103D0000B0916206A5019401281B390B4A0B5B0B8D
:103D1000DA01C901B7FDEBCD38E8830E33E1931E1C
:103D2000A11CB11C80925F0690926006A092610671
:103D3000B09262066091840670918506072E000C91
:103D4000880B990B0E947C8B69837A838B839C837D
:103D500082E0E82EF12C04E110E02FEFAE014F5F7E
:103D60005F4F60E876E08AE596E00E94901BC09085
:103D70008006D0908106E0908206F090830620E0D5
:103D800030E040EA50E4C701B6010E94059287FD89
:103D900020C020E030E046E153E4C701B6010E94B4
:103DA000758B1816B4F06091840670918506072E05
:103DB000000C880B990B0E947C8B9B01AC01C70106
:103DC000B6010E94758B87FD26C080E08093860631
:103DD0008ECD109286068091020180728093000140
:103DE00086CD40E558E164E678E18FEF0E945F1BE5
:103DF0004ECF45E958E168EA78E180E00E945F1B18
:103E0000AECD0E94051132CF0E94521173CF81E0D6
:103E100080934906FBCE8FE7D9CF81E08093490696
:103E20006FE7F5CEC301B2010E94758B87FDD1CE3D
:103E3000C301B2010E94119175956795E8CE109269
:103E4000490660E070E0CB014CCECF92DF92EF925A
:103E5000FF926B017C0183E3C816D104E104F104F5
:103E600070F082E3C81AD108E108F10862E370E05B
:103E700080E090E00E94C6100E945B1CECCFC7015E
:103E8000B6010E94C610FF90EF90DF90CF900C9487
:103E90005B1C80919506811104C080919706882350
:103EA00031F062E070E080E090E00C94251F08950E
:103EB0008F929F92AF92BF92CF92DF92EF92FF923A
:103EC000CF936B017C01B42E20E030E0A9010E9469
:103ED000758B87FF07C08DE20E943619F7FAF094C0
:103EE000F7F8F094C0E060E070E080E09FE3CB156D
:103EF00041F02DEC3CEC4CEC5DE30E94DB8BCF5FA2
:103F0000F6CF9B01AC01C701B6010E94A58F6B01E2
:103F10007C010E9418914B015C014AE00E94C51A85
:103F2000CC2391F1C501B4010E947A8B9B01AC01B5
:103F3000C701B6010E94A48F6B017C018EE20E9432
:103F40003619C15008F120E030E040E251E4C701E9
:103F5000B6010E94DB8B4B015C010E9411916B0149
:103F6000770FEE08FF08C701B6010E94361BC70194
:103F7000B6010E947C8B9B01AC01C501B4010E947B
:103F8000A48F6B017C01DDCFCF91FF90EF90DF908C
:103F9000CF90BF90AF909F908F9008950F931F93F5
:103FA000CF93DF930E943D198AE00E943619C0E04A
:103FB000D3E0DC0F84E0C89F80011124F801E05BAE
:103FC000F24F20E030E0A90160817181828193810C
:103FD0000E94059287FD03C08BE20E943619F8010A
:103FE000E05BF24F608171818281938146E00E94A3
:103FF000581F80E20E943619CF5FCD13DBCF8AE0D5
:104000000E943619C930A1F6DF91CF911F910F910F
:104010000895CF92DF92EF92FF926A017B010E9496
:104020003D1942E0C701B601FF90EF90DF90CF90BD
:104030000C94581F8823A9F10E94C41940918B0D3C
:1040400050918C0D60918D0D70918E0D8AEF9CE1D9
:104050000E94092040918F0D5091900D6091910D1B
:104060007091920D87EF9CE10E9409204091930D81
:104070005091940D6091950D7091960D84EF9CE197
:104080000E9409204091970D5091980D6091990DD3
:1040900070919A0D81EF9CE10E9409208AE00C94B6
:1040A000361980E20E943619C9CFFF920F931F93F1
:1040B000CF93DF938C01EB01F42E80E20E9436193E
:1040C0008FEFF81609F184E50E9436198AE30E9401
:1040D0003619F801608171818281938142E00E94EA
:1040E000581F488159816A817B8185E59AE10E9448
:1040F000092062E070E080E090E0DF91CF911F91B5
:104100000F91FF900C94C61082E4DECF1F93CF93E3
:10411000DF9300D000D01F921F92CDB7DEB7182FCB
:104120006091D50D7091D60D072E000C880B990B60
:104130000E947C8B6D837E838F8398878091D10DC5
:104140009091D20DA091D30DB091D40D89839A8313
:10415000AB83BC834DEFBE016B5F7F4FCE010196F9
:104160000E9455206091840670918506072E000CF0
:10417000880B990B0E947C8B6D837E838F8398873D
:104180008091800690918106A0918206B09183066D
:1041900089839A83AB83BC834FEFBE016B5F7F4FF4
:1041A000CE0101960E9455206091860617FD07C03A
:1041B00087E11802F0011124E353F24F628570E0A9
:1041C0008DE59AE10E94521B6091860670E088E5B9
:1041D0009AE10E94521B28960FB6F894DEBF0FBEDC
:1041E000CDBFDF91CF911F9108954F925F926F9253
:1041F0007F928F929F92AF92BF92CF92DF92EF9277
:10420000FF922091290830912A0840912B08509163
:104210002C0860914F027091500280915102909150
:1042200052020E94A58FAB01BC0181E99FE00E9470
:10423000092020912D0830912E0840912F0850918F
:104240003008609153027091540280915502909110
:1042500056020E94A58FAB01BC018DE89FE00E9431
:104260000920209131083091320840913308509153
:1042700034086091570270915802809159029091D0
:104280005A020E94A58FAB01BC0189E89FE00E9401
:10429000092040915B0250915C0260915D02709137
:1042A0005E0285E89FE00E94092080916F00982FB0
:1042B000927081FF05C080916F008D7F80936F00A9
:1042C0004090340650903506609036067090370660
:1042D0008090380690903906A0903A06B0903B0640
:1042E000C0903C06D0903D06E0903E06F0903F0620
:1042F000992329F080916F00826080936F008BE793
:104300009FE00E943D19C301B2010E94361B87E75E
:104310009FE00E943D19C501B4010E94361B83E74E
:104320009FE00E943D19C701B6010E94361B8AE03A
:10433000FF90EF90DF90CF90BF90AF909F908F90C5
:104340007F906F905F904F900C943619CF93DF93CE
:10435000C82FD1E0D827811102C00E94C41988E17A
:104360009FE00E943D1982E19FE00E943D198AE092
:104370000E9436198AE00E943619C11110C00E94AD
:10438000C4198FEF9EE00E943D198091D2058823C9
:1043900009F4FFC18AE00E9436190E94C4194091B5
:1043A000D7055091D8056091D9057091DA058BEE4B
:1043B0009EE00E9409208AE00E9436198091D20571
:1043C000811108C0C11102C00E94C41980EE9EE094
:1043D0000E943D19C11106C00E94C4198FEC9EE0D5
:1043E0000E943D198D2F0E941A20C11108C00E9401
:1043F000C41981EB9EE00E943D190E94C4194091AE
:104400009B0D50919C0D60919D0D70919E0D88EAC1
:104410009EE00E94092040919F0D5091A00D609157
:10442000A10D7091A20D85EA9EE00E9409204091A5
:10443000A30D5091A40D6091A50D7091A60D82EA77
:104440009EE00E9409204091A70D5091A80D609117
:10445000A90D7091AA0D8FE99EE00E9409208AE0C3
:104460000E943619C11108C00E94C4198DE79EE050
:104470000E943D190E94C4196091770D7091780DCA
:104480008091790D90917A0D0E947A8BAB01BC01DD
:1044900084E79EE00E94092060917B0D70917C0D65
:1044A00080917D0D90917E0D0E947A8BAB01BC01B5
:1044B00081E79EE00E94092060917F0D7091800D40
:1044C0008091810D9091820D0E947A8BAB01BC018D
:1044D0008EE69EE00E9409206091830D7091840D0C
:1044E0008091850D9091860D0E947A8BAB01BC0165
:1044F0008BE69EE00E9409208AE00E943619C111D5
:1045000008C00E94C41981E29EE00E943D190E94E9
:10451000C4194091AB0D5091AC0D6091AD0D7091EF
:10452000AE0D88E19EE00E9409204091AF0D5091B0
:10453000B00D6091B10D7091B20D85E19EE00E94C9
:1045400009204091B30D5091B40D6091B50D70915B
:10455000B60D82E19EE00E9409208AE00E94361991
:10456000C11113C00E94C4198AEC9DE00E943D193C
:104570008FE99DE00E943D1980E99DE00E943D1970
:104580008AE00E9436190E94C4196091870D7091CB
:10459000880D8091890D90918A0D0E947A8BAB01D4
:1045A000BC0187E89DE00E9409204091B70D509121
:1045B000B80D6091B90D7091BA0D84E89DE00E942C
:1045C00009204091BB0D5091BC0D6091BD0D7091C3
:1045D000BE0D81E89DE00E94092040915108509154
:1045E000520860915308709154088EE79DE00E9434
:1045F00009204091550850915608609157087091D4
:1046000058088BE79DE00E9409204091590850917D
:104610005A0860915B0870915C0888E79DE00E94F1
:10462000092040915D0850915E0860915F0870918B
:10463000600885E79DE00E9409208AE00E94361903
:10464000C11108C00E94C41987E69DE00E943D196F
:104650000E94C419409198065091990660919A065B
:1046600070919B068EE59DE00E94092040919C067A
:1046700050919D0660919E0670919F068BE59DE08E
:104680000E9409204091A0065091A1066091A206C7
:104690007091A30688E59DE00E9409208AE00E94AF
:1046A0003619C11108C00E94C41984E49DE00E941B
:1046B0003D190E94C4196091BF0D70E08BE39DE02D
:1046C0000E94521B8AE00E943619C11108C00E9444
:1046D000C4198CE29DE00E943D190E94C4194091CA
:1046E000D80D5091D90D6091DA0D7091DB0D83E2F8
:1046F0009DE00E9409202CEA35EC47E25EE36091E0
:10470000DC0D7091DD0D8091DE0D9091DF0D0E942A
:104710009F90AB01BC0180E29DE00E9409202CEA41
:1047200035EC47E25EE36091E00D7091E10D809120
:10473000E20D9091E30D0E94DB8BAB01BC018DE19A
:104740009DE00E9409208AE00E943619C11110C024
:104750000E94C4198EE09DE00E943D1982E19FE015
:104760000E943D1982E09DE00E943D190E94C419FB
:10477000409135085091360860913708709138089B
:1047800085E09DE00E9409208AE0DF91CF910C94A2
:10479000361984EF9EE00E943D19FFCD8DE00E9406
:1047A00036198AE00C9436198091A0048093A104F4
:1047B0008BEB9AE00E943D196091C20D7091C30D80
:1047C0008091C40D9091C50D6F5F7F4F8F4F9F4FAC
:1047D0000E94361B0E94CE23E0912408F0E0E057AF
:1047E000F94F8081882339F088EB9AE00E943D19C7
:1047F0008AE00C9436190895CF93DF93EC010E9460
:104800009B19CE010E943D196091C20D7091C30D9C
:104810008091C40D9091C50D0E94361B0E94CE233D
:104820000E94061A0196E1F70E94D4231092C10D4E
:104830001092C00DDF91CF9108950F931F93CF93E6
:104840008C01C62F83EA9AE00E943D19C8010E949C
:104850003D198AE30E9436196C2F70E090E080E0E9
:104860000E94361BCF911F910F910C94CE23CF93B2
:10487000DF93EC018991882319F00E943619FACF51
:10488000DF91CF910C94CE234F925F926F927F92E3
:104890008F929F92AF92BF92CF92DF92EF92FF9250
:1048A000CF93DF9300D000D0CDB7DEB79E838D834A
:1048B000DC014D905D906D907C90139714968D90D7
:1048C0009D90AD90BC90179718968D919D910D90ED
:1048D000BC91A02D89839A83AB83BC83A3019201F1
:1048E000C301B2010E94DB8B6B017C01A501940125
:1048F000C501B4010E94DB8B9B01AC01C701B6016D
:104900000E94A58F6B017C0129813A814B815C81DA
:10491000CA01B9010E94DB8B9B01AC01C701B60142
:104920000E94A58F0E9453929B01AC0160E070E051
:1049300080E89FE30E949F906B017C01AC019B018A
:10494000C301B2010E94DB8BED81FE816083718324
:1049500082839383A7019601C501B4010E94DB8B7A
:10496000AD81BE8114966D937D938D939C93179723
:10497000A701960169817A818B819C810E94DB8BE2
:10498000ED81FE81608771878287938726960FB6B7
:10499000F894DEBF0FBECDBFDF91CF91FF90EF90B7
:1049A000DF90CF90BF90AF909F908F907F906F904F
:1049B0005F904F9008958F929F92AF92BF92CF9247
:1049C000DF92EF92FF921F93CF93DF93CDB7DEB7C5
:1049D00060970FB6F894DEBF0FBECDBF182F80E0F2
:1049E0000E9468134B015C018092A4059092A5057A
:1049F000A092A605B092A70581E00E9468136B0102
:104A00007C01C092A805D092A905E092AA05F09277
:104A1000AB0582E00E9468136093AC057093AD050E
:104A20008093AE059093AF0589829A82AB82BC8257
:104A3000CD82DE82EF82F88669877A878B879C87B2
:104A400080915B0290915C02A0915D02B0915E0248
:104A50008D879E87AF87B88BCE0101960E94FF1687
:104A60001E3FD9F480E1FE013196AFE4B2E001903F
:104A70000D928A95E1F760960FB6F894DEBF0FBEEF
:104A8000CDBFDF91CF911F91FF90EF90DF90CF903E
:104A9000BF90AF909F908F90089584E0189FF00191
:104AA0001124DF01A15BBD4F81E090E08C0F9D1FC1
:104AB000E80FF91F40815181628173814D935D93AD
:104AC0006D937C931397D7CF4F925F926F927F92A3
:104AD0008F929F92AF92BF92CF92DF92EF92FF920E
:104AE0000F931F93CF93DF93CDB7DEB76A970FB6BF
:104AF000F894DEBF0FBECDBF9A8F898F5B018A010C
:104B0000DC01D6966D917D918D919C91D9970E94F3
:104B10007A8B6B017C01F5012081318142815381C7
:104B20000E94DB8B0E9483902B013C01D8012D91C8
:104B30003D914D915C91C701B6010E94DB8B0E94B3
:104B400083904B015C01C301B2010E941891698BF3
:104B50007A8B8B8B9C8B683771058105910540F4AE
:104B600028E730E040E050E0298B3A8B4B8B5C8BA0
:104B7000C501B4010E9418916D877E878F87988B3D
:104B8000683771058105910540F488E790E0A0E061
:104B9000B0E08D879E87AF87B88BE98DFA8DEE5B8D
:104BA000FF4F208131814281538129833A834B8396
:104BB0005C83CA01B9010E947C8B2B013C0169898D
:104BC0007A898B899C890E947A8B69877A878B87FF
:104BD0009C8720E030E0A901C301B2010E94758BDF
:104BE000882309F43BC1A7019601C701B6010E94C1
:104BF000DB8B4B015C0129853A854B855C85CA01BD
:104C0000B9010E94DB8B9B01AC01C501B4010E947C
:104C1000A48F4B015C01A3019201C301B2010E9468
:104C2000A58F9B01AC01C501B4010E949F900E9419
:104C300083900E9418916D837E838F83988769810A
:104C40007A818B819C8190958095709561957F4F3D
:104C50008F4F9F4F0E947C8B4B015C016D857E8541
:104C60008F8598890E947A8B69837A838B839C8352
:104C700020E030E0A901C501B4010E94758B8823B2
:104C800009F4F0C029813A814B815C81CA01B901E4
:104C90000E94DB8B6D8B7E8B8F8B988FA70196018B
:104CA000C701B6010E94DB8B9B01AC016D897E8937
:104CB0008F89988D0E94A48F6B017C01A5019401BE
:104CC000C501B4010E94A58F9B01AC01C701B601CB
:104CD0000E949F900E944791A98DBA8D95968D90C4
:104CE0009D90AD90BC909897750164012D813E8197
:104CF0004F815885C21AD30AE40AF50A0E94189116
:104D0000C61AD70AE80AF90AF7FE6EC020E030E0BA
:104D1000A901C301B2010E94758B882309F4A6C0C2
:104D2000C501B4010E947A8B6B017C01A301920141
:104D3000C301B2010E94A58F9B01AC01C701B6015E
:104D40000E94DB8B6B017C0129853A854B855C8554
:104D5000CA01B9010E94DB8B9B01AC01C701B601FE
:104D60000E94A48F6B017C0129813A814B815C8177
:104D7000CA01B9010E94DB8B9B01AC01C701B601DE
:104D80000E94A58F6B017C0120E030E040E850E4F8
:104D9000C301B2010E94DB8B9B01AC01C701B601CC
:104DA0000E949F900E9483906B017C0120E030E084
:104DB000A9010E94059218161CF0C12CD12C760175
:104DC000C701B6010E9418916D837E838F839887F7
:104DD00086169706A806B90620F48D829E82AF82B9
:104DE000B886C12CD12C76018D819E81AF81B8858A
:104DF000E98DFA8D81A792A7A3A7B4A7C80ED91EE3
:104E0000EA1EFB1EC5A6D6A6E7A6F0AA29893A89FE
:104E10004B895C8922AF33AF44AF55AFFE962D85E9
:104E20003E854F85588920833183428353836A9618
:104E30000FB6F894DEBF0FBECDBFDF91CF911F91AB
:104E40000F91FF90EF90DF90CF90BF90AF909F9029
:104E50008F907F906F905F904F90089560E070E02A
:104E6000CB01E5CE60E070E0CB0134CF60E070E0D4
:104E7000CB0198CF8091770490917804009731F01E
:104E80004AE050E070E060E00C94C18860E070E0BF
:104E9000CB010895CF93DF93EB010E94291988235A
:104EA00019F00E943A27EB01CE01DF91CF910895CE
:104EB0000E943A2797FD0CC00E943A276F3F710568
:104EC0008105910509F034F40E943A27862F089550
:104ED00080E008958FEF08950E94291981110C94A4
:104EE000582780E00895CF9384E50E942919C0E0F7
:104EF0008823F9F00E945827C82F1816D4F40E946E
:104F0000C4198DE40E94361960919B0470919C0431
:104F1000072E000C880B990B0E94361B6C2FCC0FB0
:104F2000770B80EA94E00E94521B8AE00E943619B7
:104F3000CFEF8C2FCF9108958091770490917804D2
:104F4000892B41F00E94582791E0811101C090E027
:104F5000892F089591E0FCCFCF93DF93C82FD62FF0
:104F60000E942919882321F0DF91CF910C949C276E
:104F70008C2F0E94E018811101C08D2FDF91CF91FD
:104F800008954F925F926F927F92AF92BF92CF92AD
:104F9000DF92EF92FF920F931F93CF93DF931092C4
:104FA0009A04109299042FE320939D0410929C047C
:104FB00010929B04109295041092960410929704FC
:104FC000109298049C01E90198812F5F3F4F903225
:104FD000D1F39E34C9F4898190ED980F9A3020F076
:104FE0008D3211F08B3281F422969E012F5F3F4F5C
:104FF000888180538A3008F470C09E012F5F3F4F34
:105000008881803209F46BC0D093760DC093750D02
:105010007E012FEFE21AF20A18816AE270E0C701FE
:105020000E941393009731F0FC0131978081803208
:10503000E1F311821D3421F0143511F01734F1F52C
:10504000F70180819FEFE91AF90A8032C9F3805392
:105050008A30A0F510939D0490E080E0AAE0AF01B3
:105060004F5F5F4F2081022E000C330B205331091C
:10507000A89FB001A99F700D1124C901860F971F29
:10508000FA01208120532A3050F390939C0480939E
:105090009B04DF0131962C912032D9F31D3459F550
:1050A0008E31910539F0ECF48731910519F08C318E
:1050B000910509F5B0939A04A0939904DF91CF91DB
:1050C0001F910F91FF90EF90DF90CF90BF90AF9026
:1050D0007F906F905F904F900895E90186CFE9012E
:1050E0008CCF853791053CF0873791051CF3803ACA
:1050F000E3E09E07F9F240E050E0BA0130E020E042
:10510000C12CD12C7601C39401C0DF01FD01319681
:105110000C91002309F48BC00132E1F41D34D1F469
:1051200080329105B9F440939504509396046093AE
:10513000970470939804F0939A04E093990463E2BF
:1051400070E0CF010E941393009709F4B7CFFC01E0
:105150001082B4CF01540A3108F064C0DF01BD9061
:10516000D0E2AD2EBA1499F0A0EDAB0DAA3008F143
:10517000AEE2BA120EC0A181A053AA30D0F0211520
:10518000310519F49F0121503109B12C16C0FD01E0
:10519000E5CFADE2AA2EBA1419F0ABE2BA12EFCF06
:1051A000A181B0EDBA0FBA3020F0AE3241F7A28142
:1051B000E3CFBE2EBC1A309741F3A02FB0E02601FA
:1051C000370104C0440C551C661C771C0A95D2F7A5
:1051D0004429552966297729A558BB4FBC92A0813F
:1051E000A154AA3108F491CFDF01FD010D910023F4
:1051F00009F48BCFD0EDBD2EB00ED9E0AD2EAB149F
:10520000A0F7D3EDBD2EB00EAA24A394AB1468F77B
:105210000B3259F3DF0111960081003209F075CF8E
:10522000FD01F8CF21153105D1F69D01D8CF30937E
:105230009A042093990440939504509396046093A4
:105240009704709398043ACFDF92EF92FF920F93F6
:105250001F93CF93DF93CDB7DEB7EC970FB6F894DB
:10526000DEBF0FBECDBF60919E0470919F0461159B
:10527000710509F44EC04BE350E08E010F5F1F4FE4
:10528000C8010E941C8B1CAEF8017F01E01AF10AD4
:10529000D190DD2019F02AE0D212F7CFF801EE0DFF
:1052A000FF1D10828981882319F18A3009F18D3020
:1052B000F9F08B3371F180912608843050F580919C
:1052C000220520E6829FC0011124B8018C55994F18
:1052D0000E94279380E00E9450180E94C419B801D0
:1052E0008BEA9AE00E94881988EA9AE00E943D19A8
:1052F00090E080E0DD2049F08FEFE81AF80A809115
:105300009E0490919F048E0D9F1D90939F04809307
:105310009E0481E020919E0430919F04232B09F488
:1053200080E0EC960FB6F894DEBF0FBECDBFDF91E4
:10533000CF911F910F91FF90EF90DF9008952F92E2
:105340003F924F925F926F927F928F929F92AF9215
:10535000BF92CF92DF92EF92FF920F931F93CF9362
:10536000DF9300D000D01F92CDB7DEB70E94F910B6
:105370006B017C010091000209830023F1F0809110
:105380007A048823D1F04091590450915A046091D5
:105390005B0470915C0497018601041B150B260BBE
:1053A000370BB901A80177FD1BC0833009F466C033
:1053B0000CF055C081300CF05AC01981212F30E01B
:1053C000A8EEB3E00E94958FC60ED71EE81EF91E08
:1053D000C0925904D0925A04E0925B04F0925C04AB
:1053E00080912608843030F40E942429811102C063
:1053F0000E9414420E94F9106B017C018091730499
:1054000090917404A0917504B09176040097A10561
:10541000B105C9F140916604509167046091680438
:1054200070916904840F951FA61FB71FA7019601ED
:10543000281B390B4A0B5B0BDA01C901B7FD23C0EE
:105440000E949B196091750D7091760D82E992E032
:105450000E9488198AE00E9436190E949F198430A0
:1054600009F0ABCF0E94C41981E592E004C00E940C
:10547000C41980E892E00E943D199FCF0E94C41990
:1054800089E692E0F8CF8091010290910202A0910A
:105490000302B09104020097A105B10581F030919B
:1054A0003C0D20913B0D3217B9F10E94F910609329
:1054B00066047093670480936804909369048091F4
:1054C000610490916204A0916304B0916404A70107
:1054D0009601281B390B4A0B5B0BDA01C901B7FD9A
:1054E00066C190913C0D80913B0D609177089817B3
:1054F00009F44BC0E0913B0D3BE4E39FF001112424
:10550000EF52F74F608180913B0D90913C0D9817C1
:10551000E1F18F5F8F70F9CF40916604509167047D
:105520006091680470916904840F951FA61FB71FCE
:1055300097018601081B190B2A0B3B0BD901C801E7
:10554000B7FD20C0809165048111B9CF81E08093BF
:1055500065045F9A809128088E7F809328088A9A34
:10556000809128088D7F809328088091080180957C
:10557000817080930601809128088B7F8093280892
:10558000129A9DCF109265049ACF70E089E00E9434
:10559000CA0F80917606882309F4FCC02090270268
:1055A00030902802009129020F8310912A021E8355
:1055B0006091D50D7091D60D6E5F7F4F072E000C58
:1055C000880B990B0E947C8B9101A8010E94758B1E
:1055D00087FDE0C000913B0D09831A821B821C826B
:1055E0001D8280913C0D1981811709F460C0812FC3
:1055F00090E02BE4289FF001299FF00D1124E5573E
:10560000F74F458956896789708D452B462B472B67
:1056100081F4418D528D638D748D452B462B472B24
:1056200041F4458D568D678D70A1452B462B472B38
:10563000C9F13BE4389F8001399F100D11240557B3
:10564000174FF80161817281838194810E94539286
:105650004B015C01F80161A172A183A194A10E9498
:105660007A8B2B013C01F80165A176A187A190A559
:105670000E947A8B9B01AC01C301B2010E949F90F2
:10568000A50194010E94DB8B5B018C012A813B8187
:105690004C815D810E940592181624F4AA82BB8277
:1056A0000C831D8389818F5F8F7089839ACF2091AE
:1056B0002B0230912C0240912D0250912E026A81D2
:1056C0007B818C819D810E94DB8B91014F815E816A
:1056D0000E94A58F5B018C019B01AC01B1018F8100
:1056E0009E810E9405921816B4F0209023023090FB
:1056F0002402F0912502FF83209126022E8391013E
:105700004F2F5E81B501C8010E94059218161CF04A
:1057100015010F831E8380905D0490905E04A0901D
:105720005F04B090600491014F815E81C501B401B6
:105730000E9405921816E4F420E037ED43EA5CE39A
:10574000B1018F819E810E94DB8B2B013C0128E4FB
:1057500031EE4AE75FE3C501B4010E94DB8B9B0198
:10576000AC01C301B2010E94A58F1B018F839E83F0
:10577000C101AF81BE8180935D0490935E04A093CC
:105780005F04B0936004B101CD010E941191CB017F
:105790000E940A1334E6C30ED11CE11CF11CC09216
:1057A0006104D0926204E0926304F09264040E9467
:1057B0005B1C00916E040983002309F445C00E941C
:1057C000F91000916A0410916B0420916C043091DF
:1057D0006D04601B710B820B930B97FD35C00E940B
:1057E000F9106B017C011981212F30E0A8EEB3E0A4
:1057F0000E94958FC60ED71EE81EF91EC0926A043D
:10580000D0926B04E0926C04F0926D0480E00E94F0
:1058100086208AE027960FB6F894DEBF0FBECDBF74
:10582000DF91CF911F910F91FF90EF90DF90CF907C
:10583000BF90AF909F908F907F906F905F904F90B0
:105840003F902F900C94361927960FB6F894DEBF30
:105850000FBECDBFDF91CF911F910F91FF90EF90C1
:10586000DF90CF90BF90AF909F908F907F906F9080
:105870005F904F903F902F9008952F923F924F92BC
:105880005F926F927F928F929F92AF92BF92CF92D0
:10589000DF92EF92FF920F931F93CF93DF93CDB7D9
:1058A000DEB7C956D1090FB6F894DEBF0FBECDBF23
:1058B0005B016A0119016396FFAEEEAE639720911A
:1058C0008B0D30918C0D40918D0D50918E0DDC0122
:1058D0006D917D918D919C910E94DB8B0E94129223
:1058E0002B013C0149A25AA26BA27CA220918F0DF0
:1058F0003091900D4091910D5091920DF501608184
:105900007181828193810E94DB8B0E9412924B01F4
:105910005C018DA29EA2AFA2B8A62091930D3091FA
:10592000940D4091950D5091960DD6016D917D91FC
:105930008D919C910E94DB8B0E9412926B017C01E5
:10594000C9A6DAA6EBA6FCA62091970D3091980D7A
:105950004091990D50919A0DF10160817181828180
:1059600093810E94DB8B0E94129223966CAF7DAFD5
:105970008EAF9FAF23976DA77EA78FA798AB80911F
:105980004F0D83FF0EC023962CAD3DAD4EAD5FADE8
:10599000239720934B0D30934C0D40934D0D509316
:1059A0004E0D80913D0D90913E0D892B11F00C9480
:1059B0005139D8013C9011962C9011971296BC91B8
:1059C0002C96BFAF2C97F801F3816696FFAF6697D0
:1059D00080913C0D90913B0D891B80958F7019F43F
:1059E0000E949F29F5CF20913C0DAA962FAFAA9730
:1059F00080913C0D482F50E05CAB4BAB80913F0D4C
:105A00009091400DA091410DB091420DA3019201E2
:105A1000281B390B4A0B5B0B2FAB38AF49AF5AAF82
:105A20008091430D9091440DA091450DB091460D8C
:105A300024013501481A590A6A0A7B0A8091470DE8
:105A40009091480DA091490DB0914A0DA701960182
:105A5000281B390B4A0B5B0B2BAF3CAF4DAF5EAF36
:105A600080914B0D90914C0DA0914D0DB0914E0D2C
:105A70002396CCACDDACEEACFFAC2397C81AD90AA8
:105A8000EA0AFB0A09F476C080918808811128C0CF
:105A90006091D10D7091D20D8091D30D9091D40D64
:105AA0000E94119120914D0230914E0262177307AE
:105AB000BCF423968CAD9DADAEADBFAD2397809366
:105AC0004B0D90934C0DA0934D0DB0934E0D0E9435
:105AD000C41982EB9CE10E943D19C12CD12C7601A6
